:030000000200807B
:1000800075840875830075820075E8C87B007C0064
:1000900074FEF0E05410600A74FCF0E05410601F2D
:1000A00080EE1200DBEB543FB4310280E3EB540FDF
:1000B000B40906EB2407FB80010B1200FB80D11270
:1000C00000DBEB543FB4010280C6EB540F7006EB2B
:1000D0009407FB80011B1200FB80B512011074A075
:1000E00012013A740512013A12011074A112013A78
:1000F000120169FB12018F1201252212011074A056
:1001000012013A740512013AEB12013A120125224A
:10011000D2EF12019FD2ED12019FC2EF12019FC2D6
:10012000ED12019F22C2EF12019FD2ED12019FD268
:10013000EF12019FC2ED12019F227E083392EF124F
:10014000019FD2ED12019FC2ED12019FDEEEC2EEC1
:1001500012019FD2ED12019FA2EC920012019FC2E8
:10016000ED12019FD2EEA200227E08C2EED2ED1265
:10017000019FA2EC33C2ED12019FDEF1D2EE22C24A
:10018000EF12019FD2ED12019FC2ED12019F22D208
:10019000EF12019FD2ED12019FC2ED12019F227852
:0701A00001D8FE2280FE22BF
:00000001FF
